:100000000204F70220038E828F832202200BAE822D
:10001000AF8322022013742D016A0002201B116A93
:10002000016800022023111601680002202B215EC6
:10003000016A015E215B216D217A018101C521AE3A
:10004000218E02051A020666017402019B0205AFA9
:100050000205B50205F30204DF02052C21413098A8
:10006000FDC298E59922116874203099FDC299F576
:1000700099221174C0E0740D116A740A116AD0E0FB
:1000800022C2D51159318EB41B03D3E422B40D051D
:10009000D2D5C3E422FA314140E9CA116A1159317B
:1000A0008EB41B0280E4B40D03EAC322B408041129
:1000B0006A80D0B4150280F7FB314140E0CB116A71
:1000C000EAC44BC3227A007B007C04C2D5115931AB
:1000D0008EB41B07D3E4F583F58222B408028003B3
:1000E000B47F0CBC040280E5116A31300C80DEB4B0
:1000F0000D108B838A82BC0407E4F583F582D2D588
:10010000C322FD314140C6CD12006AEDC0E0311F6F
:10011000D0E02AFAE43BFBDCB4C38A828B8322EB77
:10012000C454F0FBEAC4540F4BFBEAC454F0FA2267
:10013000EAC4540FFAEBC454F04AFAEBC4540FFB70
:100140002224D0501424F64004240AC32224F95057
:100150000824FA40042410C322D322315DC4C0E035
:10016000540F245AD43428D4116AD0E022C0E0E5D8
:1001700083315BE582315BD0E022C0E0E493A36091
:100180000AA2E7547F116A400280F1D0E022B461F4
:10019000004007B47B00500224E0227800C0E0E475
:1001A000936008A2E7084003A380F4D0E022C0E0F7
:1001B000C3309808E599B41B01D3C298D0E02290CF
:1001C00008D01145EF315BEE315B317A1159B43A09
:1001D00004518D80EA318E75F0BFC0F075F001C01A
:1001E000F0F5F09020005024758204E493B4FE15DD
:1001F0000582E493B5F00E1168758220317A11748E
:10020000758240E4730583E583B400DAE5F0B43F1A
:1002100005900A381145B44D05900A401145B45275
:1002200005900A451145B44407900A4911454170AB
:10023000B45505900A4C1145B44E07900A4F11452C
:1002400081B0B44A07900A53114561E2B44807905F
:100250000A5911458116B44307900A6A1145818CE9
:10026000B45A00B44908900A5F11450204C00174F1
:1002700090096A114571D9115EB41B028078B43AB5
:10028000028010314140F07906710880EA745E11F5
:100290006A71D9790071087C007127F8742E116A8F
:1002A0007127F5837127F5827127B40102802D70C3
:1002B00022E860147127FA79017108EA1204DFE478
:1002C0003402F97108A3D8E97127EC60AA790471A6
:1002D0000880A4E860F27127D8FC80ECE860047123
:1002E00027D8F37127EC70E551FF9009891145304B
:1002F000987A115E807651FF9009811145806D7862
:10030000007900D9FED8FA22E95407232410F9070E
:10031000E77002090722D3878209878309E5827083
:1003200005E5837001C322115E318EB41B06D0E057
:10033000D0E080C2B43A0A79057108D0E0D0E0413B
:1003400097314150067907710880DCFA115E318ED1
:10035000B41B0280D9B43A0280DD314150067907DE
:10036000710880E8CAC44AFA2CFCEA22EEC0E0EF29
:10037000C0E0900990114579107E997F0971D57E72
:100380009F7F0971D57EA47F0971D57A05711640CA
:1003900009DAFA9009E0114580259009AF114579F5
:1003A000167EB37F0971C77EC47F0971C77ECC7F7B
:1003B0000971C77ED27F0971C77ED77F0971C7D007
:1003C000E0FFD0E0FE01747116500911681205F3C8
:1003D0001106114522711680F27810760008B820B7
:1003E000FA2290091211451106316D9008E011456D
:1003F00011C520D50650028187110E11749009EEA7
:1004000011451106E4F5D0F5F07807F6D8FD7581B1
:1004100008C0E0C0E0737A1011721106316D743AB1
:10042000111E7B101106E493A3315B1168DBF711F9
:10043000667B101106E493A3547FB47F01E424E0AB
:100440004001E42420116ADBEC1174110E31AE403E
:1004500002DAC701741172900936114511C54021A5
:1004600020D51EC083C0821174900940114511C56A
:10047000AD83AC82D0E0FAD0E0FB400520D502018C
:1004800074D0E0D0E011749008C8014591559009EE
:100490004A11451159318EB459EB11728B838A82FE
:1004A000E41204DFEDB58305ECB5820122A380F0F0
:1004B0009008FF114511C540CE20D5CB110E017219
:1004C000117478001174B850020174E8315B743A09
:1004D000116A1168E6315B08E8540F70F580E5F0A9
:1004E000E493C395F06009E0C395F06003D3800105
:1004F000C3D0F0D0E02232E4F5A8F5B875D0009171
:10050000F691F6F4F580F590F5A0F5B07581807957
:10051000C87AF9DAFED9FA0201BF74FFF58DF58BBE
:10052000758915758750759834D28E2230980612C9
:10053000005EB41B5312005EB41B4D12059C209844
:1005400003741B2212005EB45B4512059C3098DCDC
:1005500012005EB44103740B22B44203740A22B445
:100560004303741522B44403740822B423028007A1
:10057000B4240280028018C0E0B19C30980B1200B5
:100580005EB47E09D0E024E422D0E0809FD0E0B1C8
:100590009C30989812005EB41BF5809FEAC0E07A08
:1005A00014E58C2098050470FADAF6D0E0FA22C03F
:1005B000F0C0E08013C0F0C0E030E70C742D1200F2
:1005C0006AD0E0C0E0F4240175F06484D2D56007FD
:1005D000C2D5243012006AE5F075F00A8430D502E5
:1005E0006005243012006AE5F0243012006AD0E081
:1005F000D0F022C0E0E8C0E0C2D5AA82AB837C1074
:100600007D27D1516007243012006AD2D57CE87D65
:1006100003D151700330D507243012006AD2D57C43
:10062000647D00D151700330D507243012006AD2A6
:10063000D5EAABF075F00A84700330D5052430128A
:10064000006AE5F08BF0243012006AD0E0F8D0E0C8
:1006500022780008C3EA9CFAEB9DFB50F618EA2CBE
:10066000FAEB3DFBE822C0E0E8C0E0E9C0E0ECC006
:10067000E0D2D1D2D5E493A3602520E72E547FB4F5
:100680000D07120074D2D180ECB41F04C2D580E5EE
:10069000B40E051200748007C2D112006A80D6D051
:1006A000E0FCD0E0F9D0E0F8D0E022547FF820D18F
:1006B00003120068C2D1C082C0839007207C00E88A
:1006C0006007F9F10F70FCD9FAF10F603CB40F121A
:1006D000F10F0483801E68667767796278766B71A4
:1006E0006A7A0483800E657461726E69736F6C75CB
:1006F0006D706463A2D592E5D2D5B81402C2E5B894
:100700000C02C2E512006A80C0D083D082C175E4B9
:1007100093BC00057CFF540F227C00A3C4540F221D
:100720008290E82386054CF844B3B0B1485FF011DD
:100730007FA0157F1C2ED1405A50F103BFBA0C2F59
:1007400096018D3F95380D6F5F1207710E562F4839
:100750003B6258201F7670322440B840E1618F011F
:10076000340BCA89D3C0A3B9588004F80285602528
:1007700091F092731F107F12549310444807D126B2
:10078000564FD0F66472E0B83BD5F0164F56306F36
:1007900048025FA8201F017630D5602541A42C6057
:1007A000056F013F261F30078E1DF06399F042B898
:1007B000201F2330027AD1602FF0F6058F931A5054
:1007C00028F082046FA30D3F1F514023013E0543D3
:1007D000017A01176493302A088C243099B0F319F8
:1007E00060254135098ECB191230051F311D0414C7
:1007F0004F761204AB279056012FA8D5F0AA2620D9
:100800005F1CF0F361FE0141730127C1C0848FD6E4
:10081000018770564F19701FA8D99076021743FEB2
:1008200001C1840B157F028B14308F63396F19F06F
:1008300011C9106D023F91097A41D0BA0C1D395F80
:1008400007F2111720416B3509F775120BA7CC4839
:10085000023F6412A00C27E39FC01477701140710F
:1008600021C0682541F0627FD1D021E16258B0F308
:10087000051F733077B16F19E01943E0582FF6A4C4
:1008800014D02303FE31F5143099F8033F6422514C
:100890006025412FE30156279309FE11FE79BA60C6
:1008A0007542EA6258A0E51F534FD1C0A3094253D5
:1008B000F71204621B30F505F7690C351B70822FA7
:1008C0002F144F51C0642500201F9E1FA0210D0E24
:1008D0009432204C6F633A00203EA086CA822800E2
:1008E000292C958C80C83A20001F9782C373C7A615
:1008F000832CBA204A554D508086A172820D0E0D70
:100900000D1F8783813A20001FE4FB206B65793A35
:1009100020000D0D1F888083812028000D0D1F826F
:100920001FFD001F8120202020201FC90E29201F0D
:10093000871FB23A200046697273741F813A200003
:100940004C6173741F813A2020001FB9A120737578
:1009500072653F000D0D1F9C9A922C8C80C80E2052
:10096000201F9CC12C8E81F70D0E0D0D1F9F206145
:1009700073636969F9961F9884892C958C80A00D02
:100980000E0D1F8AA065640D0E0D1F8AC1640D0E29
:1009900053756D6D6172793A0E20C67391640E20A5
:1009A0008B91640E208B207772697474656E0E1FB4
:1009B0009B3A0E208B20756E61626C658020777289
:1009C0006974650E2020626164F5730E20859F9620
:1009D000C60E2085849D0E2085206E6F6E849D0E30
:1009E0001F979B2064657465637465640D0E0D86A6
:1009F0006E696E67823A0D0E0D0D53656E64696EF9
:100A0000671F988489AC20200020802020000D0DD5
:100A10005374616E646172641F9E730E1FDA1FF45B
:100A200065641F9E730E1F9A9E001F82001F8F1FFA
:100A3000E21FAA003F3F3F001FD7001F8ED7D10003
:100A40001FD18273001F8682001F8A001F93001F20
:100A50008781001F88808381001F84DB9A83001FA9
:100A600084DBC083001F9C9A92001FED83001FCB84
:0F0A70009990001F9990CB640D0E1F859B0D0E62
:00000001FF
