:030000000208A44F
:080003000220038E828F83228C
:08000B0002200BAE82AF83223C
:08001300022013742D0173009B
:08001B0002201B1173017100AA
:080023000220231116017100F7
:03002B0002202B85
:10002E00217601730167216521872194018A01CE12
:10003E0021CE21A802093A020B59017D0201BB0211
:10004E000AA2020AA8020AE602086502082B0207A3
:10005E00B602078C020A21214A3098FDC298E59912
:10006E0022117174203099FDC299F59922117DC02B
:10007E00E0740D1173740A1173D0E022C2D51162AF
:10008E0031A8B41B03D3E422B40D05D2D5C3E422A8
:10009E00FA314A40E9CA1173116231A8B41B0280C9
:1000AE00E4B40D03EAC322B40804117380D0B4156E
:1000BE000280F7FB314A40E0CB1173EAC44BC322F6
:1000CE007A007B007C04C2D5116231A8B41B07D321
:1000DE00E4F583F58222B408028003B47F0CBC04DD
:1000EE000280E5117331390C80DEB40D108B838ADA
:1000FE0082BC0407E4F583F582D2D5C322FD314AD2
:10010E0040C6CD120073EDC0E03128D0E02AFAE4EB
:10011E003BFBDCB4C38A828B8322EBC454F0FBEA34
:10012E00C4540F4BFBEAC454F0FA22EAC4540FFA3B
:10013E00EBC454F04AFAEBC4540FFB22C324D05044
:10014E001424F64004240AC32224F9500824FA4049
:10015E00042410C322D322C0E0C4540F24F650024C
:10016E002407243A1173D0E0C0E0540F24F6500255
:10017E002407243A1173D0E022C0E0E5833165E50F
:10018E00823165D0E022C0E0E493A3600AA2E75476
:10019E007F1173400280F1D0E022C0E0C394614031
:1001AE0009941A5005D0E024E022D0E0227800C055
:1001BE00E0E4936008A2E7084003A380F4D0E022B5
:1001CE00C0E0C3309808E599B41B01D3C298D0E0C3
:1001DE0022900DF51145EF3165EE316531941162C6
:1001EE0031A875F0DFC0F075F001C0F0F5F0901099
:1001FE0000F18C5024758204E493B4FE150582E45C
:10020E0093B5F00E11717582203194117D75824077
:10021E00E4730583E583B400D8E5F0B43F07900F8F
:10022E005D1145A1D0B44D07900F65114581C0B445
:10023E005207900F6A1145A137B44407900F6E1103
:10024E004541A8B45507900F711145C145B44E07ED
:10025E00900F741145E137B44A07900F781145811C
:10026E0012B44807900F7E11458149B44507900F8F
:10027E008A1145818AB44307900F8F1145E113B45B
:10028E005A0B74006012900F931145E147B4490860
:10029E00900F84114502076D017D900E8F114578E8
:1002AE00107A10760008DAFB1167B41B028072B464
:1002BE003A0679007141800A314A40EC7906714163
:1002CE0080E6742E11737C007160F87160F5837195
:1002DE0060F5827160B40102802D7022E8601471A5
:1002EE0060FA79017141EA120865E43402F971414C
:1002FE00A3D8E97160EC60B07904714180AAE8601E
:10030E00F27160D8FC80ECE860047160D8F3716023
:10031E00EC70E57138900EAE114530987A11678009
:10032E00767138900EA61145806D78007900D9FE51
:10033E00D8FA22E95407232410F907E770020907B7
:10034E0022D3878209878309E5827005E5837001D0
:10035E00C322116731A8B41B06D0E0D0E080C2B42E
:10036E003A0A79057141D0E0D0E041D0314A5006C9
:10037E007907714180DCFA116731A8B41B0280D96C
:10038E00B43A0280DD314A50067907714180E8CADD
:10039E00C44AFA2CFCEA22EEC0E0EFC0E0900EB5A3
:1003AE00114579107EBE7F0E910E7EC47F0E910E8A
:1003BE007EC97F0E910E7A05714F4009DAFA900FC1
:1003CE000511458025900ED4114579167ED87F0EE5
:1003DE0091007EE97F0E91007EF17F0E91007EF7F7
:1003EE007F0E91007EFC7F0E9100D0E0FFD0E0FEEC
:1003FE00017D714F50091171120AE6110611452245
:10040E00714F80F2900E37114511063187900E050F
:10041E00114511CE20D5065002E10E110E117D9020
:10042E000F1311451106E4F5D0F5F0F8F9FAFBFCBF
:10043E00FDFEFF758108C0E0C0E0737A10117B11DC
:10044E00063187743A111E7B101106E493A33165B1
:10045E001171DBF7116F7B101106E493A3547FB477
:10046E007F01E424E04001E424201173DBEC117DD4
:10047E00D1CA110E31CE4002DAC5017D900E79112E
:10048E004511063187743A111E74281173110EE44A
:10049E00933165900E521145118A20D510400E11E0
:1004AE0006120865117D1106A3110E8191900E841E
:1004BE000145900E41114578151171D8FC11457505
:1004CE008310F18C4002017D116F7582203194757D
:1004DE00822031BB7421C398F874201173D8FC7537
:1004EE0082003187780674201173D8FC758204E47B
:1004FE0093AA83B4FE05900F4B8018B4FD05900FA0
:10050E00528010B42305900F4F8008B4F90280EE8C
:10051E00900F5911458A83117D74FFB5830281D4E2
:10052E000583E583B4009B81D4117B7AFF90100084
:10053E0015830583E583B400028021F18C501D756F
:10054E008204E4934403F460E9116F0A74412A11A2
:10055E001E11267582203194117DA140BAFF05909F
:10056E000E0E0145900E0011457441117311167453
:10057E00412A1173900E0511451162B41B02017DC3
:10058E00FB741FC39AEB400231A81173FB117DEB74
:10059E00C3944140CFFBEAC39B40C90B901000159A
:1005AE00830583E583B400028017F18C50137582A6
:1005BE0004E4934403F460E9DBE7117D7582408126
:1005CE003422900F3311457C3F900F60D13A7C4D11
:1005DE00D13A7C52D13A7C44D13A7C55D13A7C4EB8
:1005EE00D13A7C4AD13A7C48D13A7C49D13A7C45C1
:1005FE00D13A7C43D13A740060047C5AD13A900FC0
:10060E00411145901000F18C5020758204E493B492
:10061E00FE11116F0582E49311731126758220313C
:10062E0094117D0583E583B400DC017D116FEC111F
:10063E007311261145017DD1DC900F1D1145EB3153
:10064E0065EA31651145ED3165EC3165117D8D83BE
:10065E008C82A3AC82AD83900E2D11451167B41B15
:10066E0002E10C117D8A828B83ECC39582FAED95A3
:10067E00837009EA603254F0700280027A10743A84
:10068E001173EA31653187E58325822AFBE43165F2
:10069E00E49331652BFBA3DAF7EBF4043165117D9E
:1006AE00D1CA31CE50C38056743A1173E4316531DC
:1006BE0065316504316574FF3165017BE8C0E07812
:1006CE000CE58C04000070FBD8F7D0E0F822117B0B
:1006DE00900E5B114511CE402120D51EC083C082E5
:1006EE00117D900E65114511CEAD83AC82D0E0FA2E
:1006FE00D0E0FB400520D502017DD0E0D0E0117D99
:10070E00900DED0145D1DC900E6F1145116231A8AF
:10071E00B459EB117B8B838A82E4120865EDB583A5
:10072E0005ECB5820122A380F0900E24114511CE66
:10073E0040CE20D5CB110E017B117B900F9311452E
:10074E00742C111E900E6F1145116231A8B459AE62
:10075E00117B1207B6900F985003900F9F01451111
:10076E007D7800117DB88002017DE83165743A1103
:10077E00731171E6316508E8540F70F580E57582E6
:10078E0000E493B4A517A3E493B4E511A3E493B4E2
:10079E00E00BA3E493B4A505758200D32274FFB5D4
:1007AE008302C322058380D674006038908000E4F3
:1007BE0093F4700DA37400B582F57400B583F0C385
:1007CE0022908000E4936006E412082B4016A37476
:1007DE0000B582F07400B583EB9080007CE87D0458
:1007EE00DC04DD02D3227420A2AF92D1C2AFF0F0AE
:1007FE007B147AE5DAFEDBFA74A0F07A05DAFEE411
:10080E0093A2D192AFF470D8A37400B583EA7400AA
:10081E00B582E574FF908000F0E4F0C322F5F0EAB3
:10082E00C0E0EBC0E07A197440A2AF92D1C2AFF033
:10083E00E5F0F07B13DBFE74C0F07B05DBFEE4938A
:10084E00A2D192AFC395F06003DADCD3E4F0D0E02E
:10085E00FBD0E0FAE5F022C0E0C0F0F5F0740060E5
:10086E001BE583B4FF02800B5012B480028004504B
:10087E00028009E5F0112BD0F0D0E022E5F0F0E493
:10088E0093C395F06009E0C395F06003D38001C374
:10089E00D0F0D0E02232E4F5A8F5B875D00011A35F
:1008AE0011A3F4F580F590F5A0F5B075813079C8F7
:1008BE007AF9DAFED9FA740060137400600F78FAD0
:1008CE00A20079C8D9FE4005D8F61207B675F0F920
:1008DE00310D313A75F0FD310D781812007DD8FBCF
:1008EE00780F7420120073D8FB900DBB120B599029
:1008FE000DCF120B591204C07E007F200201DF9033
:10090E00100012078C5024758204E493B5F015C0C4
:10091E00F0C083742EC0E07409C0E0758240E473A9
:10092E00D083D0F00583E583B400D7227400701411
:10093E00E57B637A556379CC63781DB57A08B57912
:10094E0005B578024100758780759842758911E466
:10095E00F588F58AF58CF58BF58D78C8791E30B053
:10096E00E5D9FBD8F720B0FD20B0FA20B0F720B0C3
:10097E00F420B0F130B0FDD28E208FCA20B0FA2014
:10098E008FC430B0FA208FBE20B0FAD28C208FB632
:10099E0030B0FAC28EC28C208FACE58B33F5F0E509
:1009AE008D3340A2A2F73400F404609AF58D758B56
:1009BE00FF758921D29CD28EE58DF404F978FFD88B
:1009CE00FED9FA309811C298E599547F24F6600743
:1009DE0024056003020954E58A33F8E58C33F940A7
:1009EE00F3E833F5F0E933A2F7340060E7F404B529
:1009FE008DE2F57BF57AF579F578637A556379CCE6
:100A0E0063781DF58DF58B758921758780759852E4
:100A1E00D28E22309806120067B41B51120067B4B2
:100A2E001B4B518F209803741B22120067B45B443A
:100A3E00518F3098DE120067B44103740B22B4421A
:100A4E0003740A22B44303741522B44403740822B7
:100A5E00B435028007B4360280028018C0E0518F90
:100A6E0030980B120067B47E09D0E024E422D0E067
:100A7E0080A1D0E0518F30989A120067B41BF58098
:100A8E00A1EAC0E07A14E58C2098050470FADAF633
:100A9E00D0E0FA22C0F0C0E08013C0F0C0E030E732
:100AAE000C742D120073D0E0C0E0F4240175F064D4
:100ABE0084D2D56007C2D52430120073E5F075F0EC
:100ACE000A8430D50260052430120073E5F024301C
:100ADE00120073D0E0D0F022C0E0E8C0E0C2D5AA88
:100AEE0082AB837C107D2771446007243012007323
:100AFE00D2D57CE87D037144700330D507243012C3
:100B0E000073D2D57C647D007144700330D5072408
:100B1E0030120073D2D5EAABF075F00A8470033050
:100B2E00D5052430120073E5F08BF02430120073DB
:100B3E00D0E0F8D0E022780008C3EA9CFAEB9DFBE7
:100B4E0050F618EA2CFAEB3DFBE822C0E0E8C0E0D4
:100B5E00E9C0E0ECC0E0D2D1D2D5E493A360252069
:100B6E00E72E547FB40D0712007DD2D180ECB41F56
:100B7E0004C2D580E5B40E0512007D8007C2D112E5
:100B8E00007380D6D0E0FCD0E0F9D0E0F8D0E022BF
:100B9E00547FF820D103120071C2D1C082C083905D
:100BAE000C137C00E86007F9910270FCD9FA9102EF
:100BBE00603CB40F1291020483801E6866776779D9
:100BCE006278766B716A7A0483800E657461726ED8
:100BDE0069736F6C756D706463A2D592E5D2D5B8EA
:100BEE001402C2E5B80C02C2E512007380C0D083B5
:100BFE00D0826168E493BC00057CFF540F227C0018
:100C0E00A3C4540F228290E82386054CF844B3B057
:100C1E00B1485FF0117FA0157F1C2ED1405A50F1C4
:100C2E0003BFBA0C2F96018D3F95380D6F5F1207DB
:100C3E00710E562F483B6258201F7670322440B8F2
:100C4E0040E1618F01340BCA89D3C0A3B958800427
:100C5E00F80285602591F092731F107F1254931045
:100C6E00444807D126564FD0F66472E0B83BD5F013
:100C7E00164F56306F48025FA8201F017630D560A0
:100C8E002541A42C60056F013F261F30078E1DF0F5
:100C9E006399F042B8201F2330027AD1602FF0F60C
:100CAE00058F931A5028F082046FA30D3F1F5140F9
:100CBE0023013E0543017A01176493302A088C24E0
:100CCE003099B0F31960254135098ECB19123005D4
:100CDE001F311D04144F761204AB279056012FA816
:100CEE00D5F0AA26205F1CF0F361FE0141730127A7
:100CFE00C1C0848FD6018770564F19701FA8D99026
:100D0E0076021743FE01C1840B157F028B14308FC0
:100D1E0063396F19F011C9106D023F91097A41D0F4
:100D2E00BA0C1D395F07F2111720416B3509F775A3
:100D3E00120BA7CC48023F6412A00C27E39FC014ED
:100D4E00777011407121C0682541F0627FD1D021AA
:100D5E00E16258B0F3051F733077B16F19E0194394
:100D6E00E0582FF6A414D02303FE31F5143099F871
:100D7E00033F6422516025412FE30156279309FE5C
:100D8E0011FE79BA607542EA6258A0E51F534FD141
:100D9E00C0A3094253F71204621B30F505F7690C24
:100DAE00351B70822F2F144F51C064250057656C70
:100DBE00636F6D658094322C2062791FF81FFE0DD3
:100DCE000E202053656594322E444F432C94322EC0
:100DDE00455155A494322E484452B4D58D2E0E2032
:100DEE001F9E1FA0210D0E9432204C6F633A0020DF
:100DFE003EA086CA822800292C958C80C83A2000F5
:100E0E001F9782C373C7A6832CBA204A554D5080B4
:100E1E0086A172820D0E0D0D1F8783813A20001F51
:100E2E00E4FB206B65793A20000D0D1F88808381CD
:100E3E002028000D0D1F821FFD001F812020202065
:100E4E00201FC90E29201F871FB23A200046697243
:100E5E0073741F813A20004C6173741F813A2020F5
:100E6E00001FB9A120737572653F000D0D1F9C9A6E
:100E7E00922C8C80C80E20201F9CC12C8E81F70DC9
:100E8E000E0D0D1F9F206173636969F9961F98847B
:100E9E00892C958C80A00D0E0D1F8AA065640D0EF9
:100EAE000D1F8AC1640D0E53756D6D6172793A0E08
:100EBE0020C67391640E208B91640E208B20777266
:100ECE00697474656E0E1F9B3A0E208B20756E61D1
:100EDE00626C65802077726974650E202062616491
:100EEE00F5730E20859F96C60E2085849D0E208557
:100EFE00206E6F6E849D0E1F979B206465746563D4
:100F0E007465640D0E0D866E696E67823A0D0E0D58
:100F1E000D53656E64696E671F988489AC2020003E
:100F2E0020802020000D0D5374616E646172641F69
:100F3E009E730E1FDA1FF465641F9E730E1F9A9E1A
:100F4E00001F82001F8F1FE21FAA003F3F3F001F9E
:100F5E00D7001F8ED7D1001FD18273001F8682004B
:100F6E001F8A001F93001F8781001F8880838100C6
:100F7E001F84DB9A83001F84DBC083001F9C9A9220
:100F8E00001FED83001FCB9990001F9990CB640D2D
:060F9E000E1F859B0D0EE5
:10100000A5E5E0A5FE4C0000000000000000000087
:10101000000000000000000000000000FFFFFFFFD4
:081020004C69737400020048E2
:1010400011257D14C2D1114CDDFC0125EFF5835132
:101050004FEEF582514FE493FAA3E493FBA3E4939C
:10106000FCEA5408700FEA035478F8EA54074890F1
:1010700016C8938008EAC4540F901362935403F87F
:101080002EFEEF3400FF743A512A719D20D121EADF
:10109000514F719DB80104790B8011EB514F719D37
:1010A000B8020479088005EC514F7906719DD9FC8E
:1010B000EA54087010901748EA035478F8EA540785
:1010C0004893F980099017C8EAC4540F93F9901E09
:1010D000FE7808C374204007E99309A2E7547F51C2
:1010E0002AD8F1741BC0E07411C0E0EA5408700FF4
:1010F000EA035478F8EA5407489016C8938008EA3F
:10110000C4540F9013629354FC03031490111D23D5
:101110002582F582E43583F583E4730125412D4171
:101120003C21812172414841044152415821A22170
:10113000D7415E4169416D4108411021AA218321B7
:101140007441714177417D413E411C418121DF4124
:101150001441C54185418B41914195419B41A94134
:10116000AF41B541BB410C41BF41CB41D741E74104
:10117000ED2231F67440512A7452512AEA54014149
:101180004531F6EB20E703EB414F9012F5E493A3D2
:1011900060F5F8C39B7003020038E493A330E7FACC
:1011A00080EB511031F8742F512AEB547823C4F896
:1011B000EB54806014901372E893901F933582F57E
:1011C000825002058331978005E82420514F742E08
:1011D000512AEB5407414531F6318331F8ECFBEBF2
:1011E0002EF582EB20E703E48002E4F43FF583026E
:1011F00000367440412A5108742C512A7420412A27
:101200007423412A318331F87441412A31AA31F8DB
:101210007443412A31F25108742B512A7444512AE3
:101220007450512A7454512A7452020030EF54F809
:10123000F8EAC403540748514FEB414F31F674525A
:10124000512AEA540702002E510831F85100EB02EE
:1012500000343183ECFB414A511031F821AA510886
:1012600031F85100EB514F21DB513E416031744167
:101270006051087442412A513E31F821DF31832107
:10128000DB31AA21DB513E31F84108513E31F821D2
:1012900083513E414A318331F8413EEBC0E0ECFBE3
:1012A000318331F8D0E0FB2183318331F82174316F
:1012B0007431F84108317431F821833174414A5155
:1012C0001C31F85100EB514FEC414F31F631F251E6
:1012D00008742B512A411C31F631F25108742B51FC
:1012E0002A7450512A411031F631F2411C31F25129
:1012F0001C31F84108E04143C38153D0824450CCB3
:10130000834450C88050B09050B1A050B2B050B398
:1013100099534255C6CD5448B2C85432434FCECCEF
:10132000544CB2CB5243415032C8CA52434150325E
:10133000CC8C5448B08A544CB08D5448B18B544C2A
:10134000B1F0C2D05053D7A849C5B849D089544D3F
:101350004FC48854434FCE9853434FCE8750434F8A
:10136000CE00595909090909097A7E0976330952CB
:101370000971000206080C0E101214161B1E202301
:101380002425F8F0E493C398227950E58DF404F80D
:10139000D8FED9F722514F743A412A514F74204157
:0113A0002A22
:10140000A5E5E0A5FE53000000000000000000007C
:10141000000000000000000000000000FFFFFFFFD0
:0C14200053696E676C652D537465700095
:1014400030B306901D85020045900013E49324FEFE
:101450006005901DA88146A393F8E4A393F58288C4
:101460008374027182700EA3741471827007A37466
:10147000EF71826011A882A983901DB59146E95150
:101480004FE8514F0125E5B85404F5B8901D689117
:1014900046EF514FEE514F901D52914612003C20A5
:1014A000D50D5007901D7131970125AE82AF83C2D3
:1014B0008A901DC49146901EBC3197E4758108C086
:1014C000E0C0E08E828F83F5D0F8F9FAFBFCFDFED8
:1014D000FFF5F0757CDD757D14D2AAD2AF737189EA
:1014E000D0E0F9D0E0F8D082D083D0D0D0E032C0C4
:1014F000E0C0D0C083C082E8C0E0E9C0E07189D21A
:1015000099719D719DE58124FBF8E6719BE5F07171
:101510009B08E62354015145719D08E6514F08E6AA
:10152000719B719D08E6719508E67195EA7195EBDE
:101530007195EC7195ED7195EE7195EF719B719DC3
:10154000E824F8719B719D719DE57C8E7CFEE57DA4
:101550008F7DFFEAC0E0EBC0E0ECC0E0D2D1114CDF
:10156000D0E0FCD0E0FBD0E0FAAF7DAE7CE581249A
:10157000F9F8E6F57C08E6F57D120062120040B449
:101580000D0281DEB4200281DEB43F07901E35914A
:1015900046A179B45113901EB53197C2AA718975CD
:1015A000080075090075810932B44802A1CDB45212
:1015B00002A1FDB45302C167B44102C1AAB42E070F
:1015C000901EBC3197A179A179743D412A901E03E8
:1015D0003197E47195719DA88118E6719B08E651D9
:1015E0004F7802790EA1ECE871957910719DE65162
:1015F0004F08D9F81125B880EE1125A17990134430
:101600003197B1C9E58124FCF8E6719B901348A895
:10161000A8D16090134BA8B8D16090134EA889D17F
:1016200060901353A888D160901358A898D1609007
:10163000135DA887D1607454512A7430512AB1C9FE
:10164000E58C514FE58A514F719D7454512A743184
:10165000512AB1C9E58D514FE58B514F1125A17923
:101660003197B1C9E8619B7817719DD8FC901DEB4B
:101670003197E58124F9F8E68E7CFE08E68F7DFF40
:10168000EAC0E0EBC0E0ECC0E0D2D1114CD0E0FC0D
:10169000D0E0FBD0E0FAE58124F9F8EEAE7CF57CF1
:1016A000F608EFAF7DF57DF6A179E58124FBF89092
:1016B0001E25319712003A400820D505F61125A1C4
:1016C00079901D713197A179AD066F393946494935
:1016D00063066F39394649496306AD39160E111153
:1016E0006306AD39160E111166061A1F160E11117A
:1016F00066061A1F160E111166061A1F160E111114
:1017000066062269161F9292660622A14D8386867E
:101710009B06969D160E11112606225D4DAD8E8EEE
:101720002606423D2F2B37374606423D390E111112
:101730004606423D39571111A5061111390E1111F6
:10174000A9068989391A89895A0E48732B2B2B2BA4
:1017500030004375212121212E0E676E06060606F4
:1017600038006A700A0A0A0A330E5D5D5D5D5D5DD0
:101770003B00121212121212410E8F8F8F8F8F8F19
:101780003E005D354C4C4C4C7C0E124F244C4C4C66
:101790004C004C4F808080805D0E4C2B57924C4CFF
:1017A00012001C1C15151515630E191984888888DC
:1017B000600078781F278B8B530E5353194C4C4C79
:1017C000530053531C4C4C4C2B21060A5D128F4C7A
:0817D0004C804C1588274C4C9D
:10180000A5E5E0A5FE450000000000000000000086
:10181000000000000000000000000000FFFFFFFFCC
:101820004D656D6F727920456469746F722028561A
:06183000543130302900A4
:101840007C0051C6ECC2E3FC1200623119B41B02E9
:10185000618DB40B024124B40A02414BB408024129
:1018600066B415024195B40C0451C60144B411028A
:10187000618DB4030FEC54FEFC71CF901D36B14660
:1018800051E10144B4040FEC4401FC71CF901D3BC5
:10189000B14651E10144B4070221ECB4050221E054
:1018A000B406022159B4010FEC30E198D2E2FC9168
:1018B00054916471210144B4180FEC30E186C2E206
:1018C000FC9154916471210144B419024141B41A4C
:1018D000024146F5F0EC20E102014430E210E5F06F
:1018E0007198B5F0F48F838E821200564195E5F021
:1018F00012004012006540E1F88F838E82EC20E3F5
:101900000AE8FDECD2E3FC71210148EDC454F02853
:10191000120056ECC2E3FC4195C0E0EC20E106C2A7
:10192000E3FCD0E02230E3F9D0E0C0E01200401246
:10193000006550EED0E0C0E0B41B0EECC2E3FC71D9
:1019400021D0E0D0E0D0E001448F838E82ED120000
:1019500056ECC2E3FC712180C9EC540270020144D0
:101960009154ECC0E09019C2B14C12003C404820A8
:10197000D545A882A9839019D2B14612003C4037C0
:1019800020D534AC82AD839019DBB14C12003A40C3
:101990002620D523FAECFEEDFFD0E0FC8882898377
:1019A000EA120056EEB5820CEFB5830891549164AB
:1019B00051E10144A380E9D0E0FC9154916471218C
:1019C000014446696C6C1F833B2046697273743A0C
:1019D000200020204C6173743A200020A83A200097
:1019E0009154EC6402FC9164712101449154901A69
:1019F0001DB14CECC0E012003CD0E0FC401320D5FF
:101A000010AE82AF8371CF741471D5916451E1012E
:101A10004471CF741471D59164712101441F831FE7
:101A2000813A2000714DEEC39410FEEF9400FFEE5A
:101A3000F454F06008740171DD7169014451E101F1
:101A4000441F51E101440F51E10144714DEE241056
:101A5000FEEF3400FFEE54F06008740171D5716937
:101A6000014451E10144714D740371E5EEC39401E9
:101A7000FEEF9400FFEE44F0F4600471690144EE5F
:101A8000F454F0600C743071ED740171DD71690112
:101A90004451E10144714D740371ED8E828F83A333
:101AA000AE82AF83EE540F600471690144EE54F0CE
:101AB000600C743071E5740171D57169014451E1B4
:101AC00001447420A140901CFCB146913BB1499166
:101AD00018B1499132B149741071D59132B149911F
:101AE0006471CF740271D57582008F837810B1490B
:101AF000120036743AB140AA82AB8351C271AAB1C6
:101B000043A3E582540F70F38A828B8351C251C282
:101B100051C271AA7198B140A3E582540F70F3D8F5
:101B2000CD71CFEEC4540F240371D5EE540F243879
:101B300071ED71F571B37198B1409101EE540F23BD
:101B4000F4243471E571F571B3B1438101EE540FA2
:101B500023F4243171ED71B37198B140EE540F2329
:101B6000F4243471E571B3A143EE540F23F424310E
:101B700071ED71B3719871F5B1409101EE540F237D
:101B8000F4243471E571B371F5B1438101EE54F081
:101B9000C4F4241371D5A149547FB47F0374202267
:101BA000C3942050027400242022EC20E003E4932C
:101BB00022E022C083C0828F838E82EC20E30D203E
:101BC000E004E4938001E0D082D08322ED80F8919C
:101BD0000B7448A140910BB14F7442A140910BB1DD
:101BE0004F7441A140910BB14F7444A140910BB18E
:101BF0004F7443A140901BFAA1461B5B303B376DED
:101C000000901C06A1461B5B306D00C0E0741BB148
:101C100040745BB140D0E022901D04B14678005181
:101C2000C2742BB140E812002E08B810F2901D0AC1
:101C3000A1467848742DB140D8FA22EC20E00590F6
:101C40001D368003901D3BB146780851C2D8FC90E8
:101C50001D1EA14C71CF741471D57A4851C2DAFCA3
:101C6000744861E5EC30E112901CBC20E203901C4A
:101C7000D7B146901CF2B1468005901CB4B1469095
:101C80001C84A14620205E473D476F746F20205E74
:101C9000433D436F646520205E443D446174612090
:101CA000205E4C3D52656472617720205E513D514B
:101CB000756974005E452D45646974005E413D1B85
:101CC0005B303B376D41534349491B5B306D2020EE
:101CD0005E583D486578005E413D41534349492087
:101CE000205E583D1B5B303B376D4865781B5B3091
:101CF0006D0020205E463D46696C6C001B5B481BF6
:101D00005B324A00414444523A0020202041534370
:101D10004949204551554956494C414E54003830A7
:101D200035311F9A1F831FD86F722C1FF81FFE2C8E
:101D3000203139393600434F444500444154410075
:101D4000020030020034020038020048020045025E
:101D50000050292C206F72203C4553433E20746F65
:101D600020657869743A20000D1F888083812028BF
:101D70000020436F6D6D616E642041626F72746507
:101D8000642E0D0A000DA1C520636F6E6E6563742D
:101D900020494E5431202870696E20313329206C3F
:101DA0006F7780BACFCC0D009432B3C7AE812030AC
:101DB0003031330D001FB8B3FFA520766563746F13
:101DC00072AE20000D4E6F77866E696E67A6CFCC1F
:101DD000206D6F64653A20203C5245543E3DCC2C2A
:101DE000203F3D2048656C700D0D00536B6970708D
:101DF000696E6720496E737472756374696F6E2DB6
:101E00003E20000D0A4C6F633A2020496E74205228
:101E1000414D204D656D6F727920436F6E74656E14
:101E200074730D0A004E6577204163632056616C20
:101E300075653A20000D1FCF1FCC1F9E3A0D3C52F6
:101E400045543E2086D4F60D203C53503E2086D487
:101E5000F60D20273F272020FF8ED70D20272E2785
:101E60002020FFC4FD730D202752272020FF207360
:101E700070656369616C2066756E6374696F6EC4AA
:101E8000730D20274827202084DBC0920D20275384
:101E9000272020FCD4F60D202741272020F0A22067
:101EA0004163632076616C75650D202751272020E2
:101EB000C8CFCC0D0E517569740D0A002020414326
:101EC000432042204320445054522020523020527C
:101ED0003120523220523320523420523520523693
:101EE000205237202053502020204164647220204B
:101EF000496E737472756374696F6E0D0A004143A5
:101F0000414CCC004144C400414444C3414A4DD0FB
:101F1000414ECC434A4EC5434CD24350CC44C144BD
:101F200045C34449D6444A4EDA494EC34AC24A429E
:101F3000C34AC34A4DD04A4EC24A4EC34A4EDA4AF9
:101F4000DA4C43414CCC4C4A4DD04D4FD64D4F56B8
:101F5000C34D4F56D84D55CC4E4FD04F52CC504F0D
:101F6000D0505553C85245D4524554C952CC524C06
:101F7000C352D25252C3534554C2534A4DD0535503
:101F800042C2535741D05843C8584348C45852CC12
:101F90003F3FBF50B054434FCE50B153434FCE504C
:101FA000B249C550B349D043B05432434FCE5053D9
:091FB000D744B84143C3FDC2FE51
:00000001FF
