:1000000002002F0200038E828F832202000BAE8239
:10001000AF8322020013742D210A0002001B310A53
:10002000210800020023111621080002002B32E4EF
:10003000F5A8F5B8112E112EF4F580F590F5A0F580
:10004000B0F58BF58D758921758780759852D28EA4
:100050004100E4F5A8F5B8F5A2F8F975D00075816E
:1000600080112E112E758921758780759852D28E38
:10007000D8FED9FC90015212011F900200311212D9
:100080000145743E310A11FEB4640211A0B4670246
:1000900011BBB4680211BDB46E0211D8310A80DD03
:1000A00011FEB43AFB11E2F811D811E2B4010411C7
:1000B000E2E42211E2F0A3D8FA01A0E4737810314F
:1000C0001212014531067910E493A312013331086D
:1000D000D9F63112D8EBE42211E2F58311E2F58270
:1000E000E42211EAC4FF11EA4F2211FEB46100407C
:1000F000029420C39430B40A00400294072230983E
:10010000FDC298E59922310874203099FDC299F515
:100110009922C0E0740D310A740A310AD0E022C07D
:10012000E0E493A3600AA2E7547F310A400280F121
:10013000D0E0223135C4C0E0540F2490D43440D4F0
:10014000310AD0E022C0E0E5833133E5823133D09B
:10015000E0220D0A2A2A2A204D696E692D4D6F6E04
:100160000D0A64202D20646F776E6C6F61640D0A38
:1001700067202D20676F746F0D0A68202D2064752D
:100180006D7020657874206D656D0D0A6E202D20D0
:0D0190006E657720616464726573730D8A7B
:02000300415E5C
:02000B00414171
:02002300410397
:1002000002028DC0D0C0E0C000309827C298A83547
:1002100008B8500040027840A69988350536E53682
:10022000B40810759913D204E58D7850D8FE047087
:10023000F9C299309904C299C205D000D0E0D0D05B
:1002400032D5391975390AC0D0C0E0C000852FA059
:10025000A82EE2E590F4F2D000D0E0D0D032C0D0A9
:10026000C0E0E53AE53A700320B41D04F53AB40A5B
:1002700000400EB40B12753A0030B40C120B3B80E8
:1002800007E53BA2B413F53BD0E0D0D032758180B6
:1002900075B0D7E4F5A2F5A875A893D2881208B274
:1002A0007411120AE1120A4F120A8E120AA79080E4
:1002B00000E0E590146006900000E080E8D28C1227
:1002C00008B2300852C208E53BB4840241BDB4858F
:1002D0000EE52A04B40501E4F52A120332804EB477
:1002E000860CE53D2410547FF53DF52D80D4B48770
:1002F00004B2148038B48804B215803130140A5422
:100300007FA2D0301501B392E7120AE1B40D083094
:100310001205740A120AE1E534B5350280A4120A06
:10032000F112033EE522653C609885223C120D44A3
:100330008090120D24C28EF58DF58BD28E22301452
:1003400002547FFFE5336020240C83C0E0E53324B2
:100350000483C0E0EF220368046C04CF07E907EDD3
:10036000080507F9079E07F9A2019202C201E4F805
:10037000F9FABF7F0418020844BF2000506BBF0782
:100380000122BF080418020844BF09261208FFE42E
:10039000090537B9081008F9B85A0BF8F537090AF2
:1003A0001208441208FF12090F5660E3E4F8F9023C
:1003B0000844BF0A08753700090A020844BF0D0A3D
:1003C0007537001208442012EC22BF1B0675330259
:1003D00002091BBF0E03D20022BF0F03C20022BFBF
:1003E0000B0280D1BF0C0280CCC007120A180A3061
:1003F000020530100271B5120A3BD00130000EB96F
:1004000060004009B97F005004E9945EF930133D63
:10041000C3744F9537336035F8042584F584E5853A
:100420003400F585E5849402F582E5859400F58332
:10043000E005A2E590F005A2E58270021583158221
:10044000E584700215851584D8E6120A3BE905A2F9
:10045000F0A3E52D300301C4F005A2E537B44F0247
:10046000D201780179001209F8020844753300B40A
:100470001B03020052B45B0475330422B4370785B2
:10048000372B85382C22B43809852B37852C380238
:1004900009F5B444050A744281DDB44D050A74417E
:1004A00081DDB4230475330822B4280475330C228B
:1004B000B4290475331022B463030208B2B44809A6
:1004C0001208FF12090F46F622B45A02C106221280
:1004D000089B500985332375330A02080578007993
:1004E00000753300B4410B120830E526F404F9021C
:1004F0000844B44208120830A926020844B443084C
:10050000120830A826020844B4440B120830E5262D
:10051000F404F8020844B448028003B466101208D8
:1005200030E52614F538E52714F537020844B4738E
:100530000785372B85382C22B47509852B37852CF8
:1005400038020844B46D6AA925B90006853D2DC25C
:1005500003227826E6B40007853D2DC203A1ADB481
:100560001E005002802AB426005042941DC4FAE5B1
:100570002D540F4AF52DA1ADB428005002A190B41E
:100580003000500C9427FAF52D54F04AF52DA1AD0A
:10059000B40702D203B4010AE52D540F4430F52DFF
:1005A000800BB40508E52D540F4410F52D08D9A48F
:1005B00022B46E4FE526B4050E7801E81205F61256
:1005C0000AE108B805F522B40639741B120AE17471
:1005D0005B120AE1E53895311205EA743B120AE133
:1005E000E5371205EA7452020AE104120A2EE812F3
:1005F0000AE1E9020AE183221B5B306E1B5B3F319B
:100600003B3063B4630D7805E8B1F6120AE108B82F
:100610000CF622B47245E525700875310075321765
:100620008029120830B40200500A85263115317530
:1006300032178017E526952750218526311531E59B
:1006400027B419004002741814F532E4F8F9F537AC
:10065000F538301103853138020844B44A35A826EC
:10066000B8000FA8387917AA3774509AFB7D50024A
:1006700009C4B8010E7800A9387A007B50AD370D57
:100680000209C4B8020D780079177A007B507D50BA
:100690000209C4B43F0475330E22B44B29A838A90B
:1006A00038E526B40009AA3774509AFD0209C4B48B
:1006B00001087A00AD370D0209C4B402077A007D43
:1006C000500209C4E19DB46713E526B40303020890
:1006D000F31208FF12090FF456F6E19DB44C2612EE
:1006E0000830E538B5310040DBB53200800250D427
:1006F000120A18A8267BFFC3E5329538FC1209368A
:10070000D8F3020A06B44D2D120830E538B5310091
:1007100040B2B53200800250AB120A18A826C03190
:100720007B01C3E5329538FC853831120936D8F0A3
:10073000D031020A0675330085223CB4681678264B
:10074000A925B9000122B61402D212B60402D213AE
:1007500008D9F322B46C167826A925B9000122B66F
:100760001402C212B60402C21308D9F322B4502DE7
:10077000120830A926C3744F9537602123F8120A56
:100780003B858482858583A3A3E0E590A305A2F041
:10079000A305A2D8F405A2E4F005A2D9D822120834
:1007A0009B500985332375330A020805753300858C
:1007B000223CB468187826A925B9000122B60702A0
:1007C000D210B60604D211C14B08D9F122B46C186C
:1007D0007826A925B9000280C4B60702C210B60661
:1007E00004C211C14B08D9F12275330022753300C0
:1007F000B438057C450209B922753300B43003D200
:100800000022C20022F974262525F8E91208A75013
:100810000AE675F00AA4299430F622B43B030525B4
:1008200022B41B0475330222052585233302033EBF
:10083000C000C00178267904B600010608D9F9D0B5
:1008400001D000227B00AC31AD32E8253730E70122
:10085000E4B450004002744FF537201113E538B569
:1008600031004007B5320280074005E4FAFC7D17ED
:10087000E9253820E705B504005004C39CFBECB51E
:100880000502800540039DFBEDF538120A18EA6069
:1008900006EB60031209301209F8221208A740047F
:1008A000B43B02D322C322B430005002B322B43A84
:1008B0000022C2AF1208DB753D70853D2D753217E1
:1008C00075344075354075390A1203321208E51245
:1008D00009B7D2AF120D441209F822782079407678
:1008E0000008D9FB227850790A768008D9FB895014
:1008F0000559227850790A760008D9FB055922E576
:1009000037030303540F2450F8E5375407F922E95D
:10091000048322804020100804020178257905769E
:100920000008D9FB22E49370012212033EA380F554
:10093000C3E5329531FCBB80004047E5321475F0C9
:10094000A0A4249FF582E5F03480F583E58224A0FD
:10095000F584E5833400F585EC601F7DA0E0E5902B
:1009600005A2F005A2E582700215831582E5847068
:100970000215851584DDE6DCE2A37DA0E4F0A3DDAD
:10098000FC22E53175F0A0A4F582E5F03480F58312
:10099000E58224A0F584E5833400F585EC60107DC4
:1009A000A005A2E0A3E59005A2F0A3DDF4DCF07DB4
:1009B000A0E4F0A3DDFC227C00E4F87917FA7B5078
:1009C0007D5080027C00EA23FAE9C39804F9E875B7
:1009D000F0A0A42AF584E5F03480F58505A2A803EB
:1009E000B90102A805ECF0A37470F0A3D8F7785011
:1009F000D9EE05A222120A18120A3B05A2A305A2EB
:100A000085842E85852F852E84852F8505A2E0E59A
:100A100090F53005A2D28C22C28C852E84852F853C
:100A200005A2E530F005A2758C807539012275F0BC
:100A30000A842430F8E5F02430F922E53723FFE575
:100A40003875F0A0A42FF584E5F03480F585229068
:100A50000000E090800005A2900A7A05A27800E8E4
:100A6000F0D2B5C2B5A305A29305A2F0D2B5C2B526
:100A7000A308B80FEA900000E0226450540C1C0553
:100A8000191B000F00000000000000000000901083
:100A90000005A290A00005A2E493A305A2F0A3057F
:100AA000A2E583B480F222908000781579507A0113
:100AB000EAF0A37470F0A30ABA3A027A30D9F1D8F6
:100AC000EBE8F0A37460F0A308B800F522C0E0746E
:100AD00020120AE1D0E022C0E0740A120AE1D0E05C
:100AE000222005FDD205F599223099FDC299F5998C
:100AF00022C000E534B5350280F9C2AC04F8B85024
:100B00000040027840E688341536A836B800083030
:100B10000405759911C204D000D2AC22711EC4C064
:100B2000E0540F2490D43440D451E1D0E022C0E00E
:100B3000E583711CE582711CD0E02274E0B53B03B3
:100B4000D2092274F0B53B03D20A227412B53B02DB
:100B500080057459B53B07A20AB3920B8016741432
:100B6000B53B07A20AB3920D800A300A0C7411B586
:100B70003B02C20CC20AC20922C000300B05120C93
:100B800059803A30091AC209780D120D04B53B0C90
:100B9000120D14B41104D20C80278021D8EC8021CE
:100BA000300C117808120CEEB53B05120CF9800DD3
:100BB000D8F3800D120BC4300D03C39460F53BD203
:100BC00008D00022E53B04832200880084828081D3
:100BD0008B0089878583095E000000000000713169
:100BE0000000007973617732000063786465343304
:100BF000000020766674723500006E6268677A368F
:100C00000000006D6A75373800002C6B696F303951
:100C100000002E2D6CF670DF000000E458FCB400DC
:100C20000000000D2B00230000003C000000007FAE
:100C3000000031003437000000302E323536381BCA
:100C4000008A2B332D2A39010000000086000000A5
:100C5000000000000000000000E53B0483220009C2
:100C600000050301020C000A08060409B000000098
:100C70000000005121000000595341572200004359
:100C800058444524A7000020564654522500004EE3
:100C90004248475A260000004D4A552F2800003B85
:100CA0004B494F3D2900003A5F4CD6503F000000B1
:100CB000C400DC60000000000A2A00270000003E9B
:100CC00000000000FE000031001E37000000302E42
:100CD0001D351F1C00000B2B332D2A39000000008E
:100CE0000007000000000000000000000000E88392
:100CF0002215615B4E3E463D45E88322407C7E5C8A
:100D00005B5D7B7DE88322114A5A696B6C7071725E
:100D100074757A7DE88322112F0D1D131C16071898
:100D200004050312E52A048322FFF4FAFDFE832260
:100D300031313532202039362031393220333834C0
:100D400020353736908F007801120D9FF0A374067E
:100D5000F0A308B851F3908F14E52A232304F879FF
:100D600000B12EF0A3A308E809B904F530141174FA
:100D700037908F0EF07445301502744F908F10F03D
:100D800074FB301204908F38F0301304908F50F0C1
:100D9000301104908F68F0301004908F7CF022E8BE
:100DA00083227C426175643A20384E2078787878C6
:100DB0003030207C204E65776C696E653A202D209E
:100DC0007C20496E736572743A202D207C204F720E
:100DD0006967696E3A202D207C20577261703A2035
:100DE0002D207C20202020565431303220202020FD
:020DF000207C65
:1010000000000000000000000000000000000000E0
:101010000000000010387CFE7C381000000000004A
:1010200055AA55AA55AA55AA55AA55AA55AA55AAC8
:1010300000888888F8888888003E08080808080022
:1010400000F08080E08080801E10101C10101000C6
:1010500000708080808070001E12121C1814120014
:10106000008080808080F0001E10101C1010100086
:1010700000386C6C38000000000000000000000028
:101080000000000018187E18180000FF0000000083
:101090000088C8A8A89888001010101010101E0012
:1010A0000088888850505020003E08080808080032
:1010B00018181818181818F8000000000000000090
:1010C00000000000000000F8181818181818181868
:1010D000000000000000001F181818181818181831
:1010E000181818181818181F000000000000000039
:1010F00018181818181818FF181818181818181889
:10110000FF000000000000000000000000000000E0
:10111000000000FF000000000000000000000000D0
:1011200000000000000000FF0000000000000000C0
:101130000000000000000000000000FF00000000B0
:101140000000000000000000000000000000FF00A0
:10115000181818181818181F181818181818181808
:1011600018181818181818F818181818181818181F
:1011700018181818181818FF0000000000000000C8
:1011800000000000000000FF1818181818181818A0
:1011900018181818181818181818181818181818CF
:1011A0000000000C18306030180C007E00000000B9
:1011B00000000030180C060C1830007E0000000003
:1011C00000000000FE6C6C6C6C6C6C6C000000002D
:1011D00000000002047E08107E2040000000000095
:1011E00000386C6460F060606060E6FC0000000045
:1011F00000000000000000181800000000000000BF
:1012000000000000000000000000000000000000DE
:101210000000183C3C3C181818001818000000008A
:101220000066666624000000000000000000000068
:101230000000006C6CFE6C6C6CFE6C6C00000000BE
:1012400018187CC6C2C07C060686C67C181800002A
:1012500000000000C2C60C183060C6860000000006
:101260000000386C6C3876DCCCCCCC76000000000A
:10127000003030306000000000000000000000007E
:1012800000000C18303030303030180C00000000F6
:10129000000030180C0C0C0C0C0C18300000000076
:1012A0000000000000663CFF3C66000000000000FB
:1012B000000000000018187E181800000000000050
:1012C00000000000000000000018181830000000A6
:1012D00000000000000000FE000000000000000010
:1012E00000000000000000000000181800000000CE
:1012F0000000000002060C183060C08000000000F2
:101300000000386CC6C6D6D6C6C66C3800000000D1
:1013100000001838781818181818187E00000000F7
:1013200000007CC6060C183060C0C6FE000000003D
:1013300000007CC606063C060606C67C00000000CF
:1013400000000C1C3C6CCCFE0C0C0C1E00000000C1
:101350000000FEC0C0C0FC060606C67C00000000FF
:1013600000003860C0C0FCC6C6C6C67C00000000D5
:101370000000FEC606060C183030303000000000B9
:1013800000007CC6C6C67CC6C6C6C67C000000007F
:1013900000007CC6C6C67E0606060C78000000006B
:1013A00000000000181800000018180000000000DD
:1013B000000000001818000000181830000000009D
:1013C000000000060C18306030180C060000000009
:1013D00000000000007E00007E0000000000000011
:1013E0000000006030180C060C183060000000008F
:1013F00000007CC6C60C1818180018180000000061
:101400000000007CC6C6DEDEDEDCC07C0000000022
:10141000000010386CC6C6FEC6C6C6C60000000076
:101420000000FC6666667C66666666FC000000007E
:1014300000003C66C2C0C0C0C0C2663C00000000E4
:101440000000F86C6666666666666CF80000000070
:101450000000FE6662687868606266FE0000000058
:101460000000FE6662687868606060F0000000005E
:1014700000003C66C2C0C0DEC6C6663A000000007E
:101480000000C6C6C6C6FEC6C6C6C6C60000000068
:1014900000003C18181818181818183C0000000014
:1014A00000001E0C0C0C0C0CCCCCCC780000000006
:1014B0000000E666666C78786C6666E60000000000
:1014C0000000F06060606060606266FE0000000026
:1014D0000000C6EEFEFED6C6C6C6C6C600000000A8
:1014E0000000C6E6F6FEDECEC6C6C6C60000000098
:1014F00000007CC6C6C6C6C6C6C6C67C00000000C4
:101500000000FC6666667C60606060F000000000C1
:1015100000007CC6C6C6C6C6C6D6DE7C0C0E000061
:101520000000FC6666667C6C666666E6000000008D
:1015300000007CC6C660380C06C6C67C00000000F1
:1015400000007E7E5A1818181818183C0000000079
:101550000000C6C6C6C6C6C6C6C6C67C0000000019
:101560000000C6C6C6C6C6C6C66C3810000000005D
:101570000000C6C6C6C6D6D6D6FEEE6C0000000079
:101580000000C6C66C7C38387C6CC6C60000000003
:101590000000666666663C181818183C00000000DB
:1015A0000000FEC6860C183060C2C6FE00000000B7
:1015B00000003C30303030303030303C0000000033
:1015C00000000080C0E070381C0E06020000000021
:1015D00000003C0C0C0C0C0C0C0C0C3C0000000033
:1015E00010386CC600000000000000000000000081
:1015F00000000000000000000000000000FF0000EC
:101600003030180000000000000000000000000062
:101610000000000000780C7CCCCCCC7600000000F0
:101620000000E06060786C666666667C0000000022
:1016300000000000007CC6C0C0C0C67C00000000E6
:1016400000001C0C0C3C6CCCCCCCCC760000000018
:1016500000000000007CC6FEC0C0C67C0000000088
:101660000000386C6460F060606060F000000000B2
:10167000000000000076CCCCCCCCCC7C0CCC78002C
:101680000000E060606C7666666666E6000000005A
:1016900000001818003818181818183C000000002E
:1016A00000000606000E06060606060666663C00F4
:1016B0000000E06060666C78786C66E60000000010
:1016C00000003818181818181818183C00000000E6
:1016D0000000000000ECFED6D6D6D6C60000000002
:1016E0000000000000DC66666666666600000000BA
:1016F00000000000007CC6C6C6C6C67C0000000014
:101700000000000000DC66666666667C6060F000D3
:10171000000000000076CCCCCCCCCC7C0C0C1E00A5
:101720000000000000DC7666606060F000000000F1
:1017300000000000007CC660380CC67C0000000081
:101740000000103030FC30303030361C000000001B
:101750000000000000CCCCCCCCCCCC76000000004B
:10176000000000000066666666663C180000000027
:101770000000000000C6C6D6D6D6FE6C00000000F1
:101780000000000000C66C3838386CC6000000004D
:101790000000000000C6C6C6C6C6C67E060CF8001D
:1017A0000000000000FECC183060C6FE0000000003
:1017B00000000E18181870181818180E00000000F5
:1017C0000000181818180018181818180000000041
:1017D0000000701818180E18181818700000000073
:1017E000000076DC000000000000000000000000A7
:1017F0000000000010386CC6C6C6FE0000000000E5
:1018000000003C66C2C0C0C0C2663C0C067C000042
:101810000000CC0000CCCCCCCCCCCC7600000000BE
:10182000000C1830007CC6FEC0C0C67C0000000062
:101830000010386C00780C7CCCCCCC76000000001A
:101840000000CC0000780C7CCCCCCC7600000000F2
:101850000060301800780C7CCCCCCC760000000006
:1018600000386C3800780C7CCCCCCC7600000000C2
:10187000000000003C666060663C0C063C00000016
:101880000010386C007CC6FEC0C0C67C00000000A2
:101890000000C600007CC6FEC0C0C67C0000000080
:1018A00000603018007CC6FEC0C0C67C000000008E
:1018B00000006600003818181818183C00000000D6
:1018C00000183C66003818181818183C0000000072
:1018D00000603018003818181818183C0000000074
:1018E00000C60010386CC6C6FEC6C6C600000000A2
:1018F000386C3800386CC6C6FEC6C6C6000000008C
:1019000018306000FE66607C606066FE00000000CB
:101910000000000000CC76367ED8D86E00000000B3
:1019200000003E6CCCCCFECCCCCCCCCE0000000079
:101930000010386C007CC6C6C6C6C67C000000001D
:101940000000C600007CC6C6C6C6C67C00000000FB
:1019500000603018007CC6C6C6C6C67C0000000009
:10196000003078CC00CCCCCCCCCCCC7600000000C5
:101970000060301800CCCCCCCCCCCC760000000081
:101980000000C60000C6C6C6C6C6C67E060C7800E5
:1019900000C6007CC6C6C6C6C6C6C67C000000001F
:1019A00000C600C6C6C6C6C6C6C6C67C00000000C5
:1019B0000018183C66606060663C18180000000063
:1019C00000386C6460F060606060E6FC000000005D
:1019D000000066663C187E187E181818000000008B
:1019E00000F8CCCCF8C4CCDECCCCCCC600000000D7
:1019F000000E1B1818187E1818181818D870000038
:101A00000018306000780C7CCCCCCC760000000054
:101A1000000C1830003818181818183C0000000086
:101A200000183060007CC6C6C6C6C67C0000000038
:101A30000018306000CCCCCCCCCCCC7600000000C0
:101A4000000076DC00DC6666666666660000000004
:101A500076DC00C6E6F6FEDECEC6C6C60000000096
:101A6000003C6C6C3E007E000000000000000000A6
:101A700000386C6C38007C000000000000000000A2
:101A80000000303000303060C0C6C67C000000006E
:101A9000000000000000FEC0C0C0C0000000000048
:101AA000000000000000FE06060606000000000020
:101AB00000C0C0C2C6CC183060DC860C183E0000E6
:101AC00000C0C0C2C6CC183066CE9E3E06060000DE
:101AD00000001818001818183C3C3C1800000000C2
:101AE0000000000000366CD86C36000000000000DA
:101AF0000000000000D86C366CD800000000000028
:101B0000114411441144114411441144114411442D
:101B100055AA55AA55AA55AA55AA55AA55AA55AACD
:101B2000DD77DD77DD77DD77DD77DD77DD77DD7715
:101B30001818181818181818181818181818181825
:101B400018181818181818F8181818181818181835
:101B50001818181818F818F8181818181818181845
:101B600036363636363636F6363636363636363655
:101B700000000000000000FE3636363636363636B7
:101B80000000000000F818F818181818181818188D
:101B90003636363636F606F6363636363636363695
:101BA00036363636363636363636363636363636D5
:101BB0000000000000FE06F636363636363636367B
:101BC0003636363636F606FE00000000000000000D
:101BD00036363636363636FE00000000000000008D
:101BE0001818181818F818F8000000000000000075
:101BF00000000000000000F818181818181818182D
:101C0000181818181818181F00000000000000000D
:101C100018181818181818FF00000000000000001D
:101C200000000000000000FF1818181818181818F5
:101C3000181818181818181F18181818181818181D
:101C400000000000000000FF000000000000000095
:101C500018181818181818FF18181818181818181D
:101C600018181818181F181F1818181818181818E6
:101C70003636363636363637363636363636363603
:101C8000363636363637303F0000000000000000A0
:101C900000000000003F30373636363636363636EE
:101CA0003636363636F700FF000000000000000030
:101CB0000000000000FF00F736363636363636367E
:101CC00036363636363730373636363636363636B8
:101CD0000000000000FF00FF000000000000000006
:101CE0003636363636F700F7363636363636363648
:101CF0001818181818FF00FF00000000000000006E
:101D000036363636363636FF00000000000000005A
:101D10000000000000FF00FF181818181818181805
:101D200000000000000000FF363636363636363604
:101D3000363636363636363F0000000000000000EA
:101D400018181818181F181F0000000000000000C5
:101D500000000000001F181F18181818181818186D
:101D6000000000000000003F363636363636363684
:101D700036363636363636FF36363636363636363A
:101D80001818181818FF18FF181818181818181805
:101D900018181818181818F80000000000000000A3
:101DA000000000000000001F181818181818181854
:101DB000FFFFFFFFFFFFFFFFFFFFFFFFFFFFFFFF33
:101DC00000000000000000FFFFFFFFFFFFFFFFFF1C
:101DD000F0F0F0F0F0F0F0F0F0F0F0F0F0F0F0F003
:101DE0000F0F0F0F0F0F0F0F0F0F0F0F0F0F0F0F03
:101DF000FFFFFFFFFFFFFF000000000000000000EA
:101E0000000000000076DCD8D8D8DC7600000000A6
:101E1000000078CCCCCCD8CCC6C6C6CC0000000024
:101E20000000FEC6C6C0C0C0C0C0C0C000000000E8
:101E300000000000FE6C6C6C6C6C6C6C00000000B0
:101E4000000000FEC66030183060C6FE00000000D2
:101E500000000000007ED8D8D8D8D870000000005C
:101E60000000000066666666667C6060C000000078
:101E70000000000076DC1818181818180000000080
:101E80000000007E183C6666663C187E000000007C
:101E9000000000386CC6C6FEC6C66C3800000000E4
:101EA0000000386CC6C6C66C6C6C6CEE000000009E
:101EB00000001E30180C3E666666663C000000009E
:101EC00000000000007EDBDBDB7E00000000000085
:101ED00000000003067EDBDBF37E60C00000000034
:101EE00000001C3060607C606060301C00000000FE
:101EF0000000007CC6C6C6C6C6C6C6C60000000036
:101F000000000000FE0000FE0000FE0000000000D7
:101F10000000000018187E18180000FF00000000E4
:101F200000000030180C060C1830007E0000000085
:101F30000000000C18306030180C007E000000001B
:101F400000000E1B1B181818181818181818181845
:101F50001818181818181818D8D8D87000000000C9
:101F6000000000001818007E001818000000000093
:101F7000000000000076DC0076DC000000000000BD
:101F800000386C6C38000000000000000000000009
:101F90000000000000000018180000000000000011
:101FA0000000000000000000180000000000000019
:101FB000000F0C0C0C0C0CEC6C6C3C1C00000000BA
:101FC00000D86C6C6C6C6C0000000000000000001D
:101FD0000070D83060C8F800000000000000000069
:101FE000000000007C7C7C7C7C7C7C00000000008D
:101FF00000000000000000000000000000000000E1
:00000001FF
