:10600000A5E5E0A52300000000000000000000005E
:10601000000000000000000000000000FFFFFFFF84
:0760200053593638343500F6
:10604000C2B5C2B4C2B2C2B375A200800012614729
:106050001261121260F71261A712003212606180A1
:10606000F890800005A29080A0781879A0E0E590D3
:10607000A305A2F0A305A2D9F4D8F079A005A2E463
:10608000F0A3D9FC22120032B40D041261A722C37E
:106090009430F812003490617F93F91200341200AA
:1060A00032B42D031901B3B42B030901B3B478EE54
:1060B000026085747F28F58274613400F583E912EB
:1060C0000034F0D2B4908000E8F0D2B5C2B5A3E9B4
:1060D000F0D2B5C2B5C2B4019E22908000E0E59036
:1060E000120034126218A3E582540FB400031200A8
:1060F00048E583B481E722908000780A79507A30AD
:10610000EAF0A37471F0A30ABA3A027A30D9F1D84E
:10611000EB2290700005A290A00005A2E493A305D5
:10612000A2F0A305A2E583B480F2E5A21200341226
:10613000004822758300E0E090800005A290619302
:1061400005A27800126158758300E0E09080000598
:10615000A290617F05A27800E8120034F0D2B5C2A7
:10616000B5A305A29312003405A2F0D2B5C2B512B0
:106170006218A308B80FE1758300E0E002004864EC
:1061800050540C1C05191B000F00000000000000FB
:106190000000003228290C1C05191B000F0000000C
:1061A00000000000000000780079007A801261C1D0
:1061B000FC1261E7B504FA12004809B920EF21A7E3
:1061C00022E9120034E8120034126218EA12003494
:1061D0001262187B00E488828983938A83F02BFB08
:1061E000D8F3EB120034227B008A838882E0E590AA
:1061F0002BFBD8F7126218EB12003422C2B3C2B4E0
:1062000004F590D2B3D2B4C2B4510D4100780079F4
:1062100000D8FED9FC224100C0E07420120030D02A
:02622000E0227A
:00000001FF
